{
  "contractName": "SimpleStorage",
  "abi": [
    {
      "inputs": [],
      "stateMutability": "nonpayable",
      "type": "constructor"
    },
    {
      "anonymous": false,
      "inputs": [
        {
          "indexed": true,
          "internalType": "address",
          "name": "owner",
          "type": "address"
        },
        {
          "indexed": true,
          "internalType": "address",
          "name": "approved",
          "type": "address"
        },
        {
          "indexed": true,
          "internalType": "uint256",
          "name": "tokenId",
          "type": "uint256"
        }
      ],
      "name": "Approval",
      "type": "event"
    },
    {
      "anonymous": false,
      "inputs": [
        {
          "indexed": true,
          "internalType": "address",
          "name": "owner",
          "type": "address"
        },
        {
          "indexed": true,
          "internalType": "address",
          "name": "operator",
          "type": "address"
        },
        {
          "indexed": false,
          "internalType": "bool",
          "name": "approved",
          "type": "bool"
        }
      ],
      "name": "ApprovalForAll",
      "type": "event"
    },
    {
      "anonymous": false,
      "inputs": [
        {
          "indexed": true,
          "internalType": "address",
          "name": "previousOwner",
          "type": "address"
        },
        {
          "indexed": true,
          "internalType": "address",
          "name": "newOwner",
          "type": "address"
        }
      ],
      "name": "OwnershipTransferred",
      "type": "event"
    },
    {
      "anonymous": false,
      "inputs": [
        {
          "indexed": true,
          "internalType": "address",
          "name": "from",
          "type": "address"
        },
        {
          "indexed": true,
          "internalType": "address",
          "name": "to",
          "type": "address"
        },
        {
          "indexed": true,
          "internalType": "uint256",
          "name": "tokenId",
          "type": "uint256"
        }
      ],
      "name": "Transfer",
      "type": "event"
    },
    {
      "inputs": [
        {
          "internalType": "address",
          "name": "to",
          "type": "address"
        },
        {
          "internalType": "uint256",
          "name": "tokenId",
          "type": "uint256"
        }
      ],
      "name": "approve",
      "outputs": [],
      "stateMutability": "nonpayable",
      "type": "function"
    },
    {
      "inputs": [
        {
          "internalType": "address",
          "name": "owner",
          "type": "address"
        }
      ],
      "name": "balanceOf",
      "outputs": [
        {
          "internalType": "uint256",
          "name": "",
          "type": "uint256"
        }
      ],
      "stateMutability": "view",
      "type": "function",
      "constant": true
    },
    {
      "inputs": [
        {
          "internalType": "uint256",
          "name": "tokenId",
          "type": "uint256"
        }
      ],
      "name": "getApproved",
      "outputs": [
        {
          "internalType": "address",
          "name": "",
          "type": "address"
        }
      ],
      "stateMutability": "view",
      "type": "function",
      "constant": true
    },
    {
      "inputs": [
        {
          "internalType": "address",
          "name": "owner",
          "type": "address"
        },
        {
          "internalType": "address",
          "name": "operator",
          "type": "address"
        }
      ],
      "name": "isApprovedForAll",
      "outputs": [
        {
          "internalType": "bool",
          "name": "",
          "type": "bool"
        }
      ],
      "stateMutability": "view",
      "type": "function",
      "constant": true
    },
    {
      "inputs": [],
      "name": "name",
      "outputs": [
        {
          "internalType": "string",
          "name": "",
          "type": "string"
        }
      ],
      "stateMutability": "view",
      "type": "function",
      "constant": true
    },
    {
      "inputs": [],
      "name": "owner",
      "outputs": [
        {
          "internalType": "address",
          "name": "",
          "type": "address"
        }
      ],
      "stateMutability": "view",
      "type": "function",
      "constant": true
    },
    {
      "inputs": [
        {
          "internalType": "uint256",
          "name": "tokenId",
          "type": "uint256"
        }
      ],
      "name": "ownerOf",
      "outputs": [
        {
          "internalType": "address",
          "name": "",
          "type": "address"
        }
      ],
      "stateMutability": "view",
      "type": "function",
      "constant": true
    },
    {
      "inputs": [],
      "name": "renounceOwnership",
      "outputs": [],
      "stateMutability": "nonpayable",
      "type": "function"
    },
    {
      "inputs": [
        {
          "internalType": "address",
          "name": "from",
          "type": "address"
        },
        {
          "internalType": "address",
          "name": "to",
          "type": "address"
        },
        {
          "internalType": "uint256",
          "name": "tokenId",
          "type": "uint256"
        }
      ],
      "name": "safeTransferFrom",
      "outputs": [],
      "stateMutability": "nonpayable",
      "type": "function"
    },
    {
      "inputs": [
        {
          "internalType": "address",
          "name": "from",
          "type": "address"
        },
        {
          "internalType": "address",
          "name": "to",
          "type": "address"
        },
        {
          "internalType": "uint256",
          "name": "tokenId",
          "type": "uint256"
        },
        {
          "internalType": "bytes",
          "name": "_data",
          "type": "bytes"
        }
      ],
      "name": "safeTransferFrom",
      "outputs": [],
      "stateMutability": "nonpayable",
      "type": "function"
    },
    {
      "inputs": [
        {
          "internalType": "address",
          "name": "operator",
          "type": "address"
        },
        {
          "internalType": "bool",
          "name": "approved",
          "type": "bool"
        }
      ],
      "name": "setApprovalForAll",
      "outputs": [],
      "stateMutability": "nonpayable",
      "type": "function"
    },
    {
      "inputs": [
        {
          "internalType": "bytes4",
          "name": "interfaceId",
          "type": "bytes4"
        }
      ],
      "name": "supportsInterface",
      "outputs": [
        {
          "internalType": "bool",
          "name": "",
          "type": "bool"
        }
      ],
      "stateMutability": "view",
      "type": "function",
      "constant": true
    },
    {
      "inputs": [],
      "name": "symbol",
      "outputs": [
        {
          "internalType": "string",
          "name": "",
          "type": "string"
        }
      ],
      "stateMutability": "view",
      "type": "function",
      "constant": true
    },
    {
      "inputs": [
        {
          "internalType": "address",
          "name": "from",
          "type": "address"
        },
        {
          "internalType": "address",
          "name": "to",
          "type": "address"
        },
        {
          "internalType": "uint256",
          "name": "tokenId",
          "type": "uint256"
        }
      ],
      "name": "transferFrom",
      "outputs": [],
      "stateMutability": "nonpayable",
      "type": "function"
    },
    {
      "inputs": [
        {
          "internalType": "address",
          "name": "newOwner",
          "type": "address"
        }
      ],
      "name": "transferOwnership",
      "outputs": [],
      "stateMutability": "nonpayable",
      "type": "function"
    },
    {
      "inputs": [
        {
          "internalType": "string",
          "name": "x",
          "type": "string"
        }
      ],
      "name": "set",
      "outputs": [],
      "stateMutability": "nonpayable",
      "type": "function"
    },
    {
      "inputs": [],
      "name": "get",
      "outputs": [
        {
          "internalType": "string",
          "name": "",
          "type": "string"
        }
      ],
      "stateMutability": "view",
      "type": "function",
      "constant": true
    },
    {
      "inputs": [],
      "name": "safeMint",
      "outputs": [],
      "stateMutability": "nonpayable",
      "type": "function"
    },
    {
      "inputs": [
        {
          "internalType": "uint256",
          "name": "tokenId",
          "type": "uint256"
        }
      ],
      "name": "tokenURI",
      "outputs": [
        {
          "internalType": "string",
          "name": "",
          "type": "string"
        }
      ],
      "stateMutability": "view",
      "type": "function",
      "constant": true
    }
  ],
  "bytecode": "0x60806040526040518060400160405280601581526020017f68747470733a2f2f697066732e696f2f697066732f0000000000000000000000815250600a908051906020019062000051929190620001f4565b503480156200005f57600080fd5b506040518060400160405280600781526020017f4d79546f6b656e000000000000000000000000000000000000000000000000008152506040518060400160405280600381526020017f4d544b00000000000000000000000000000000000000000000000000000000008152508160009080519060200190620000e4929190620001f4565b508060019080519060200190620000fd929190620001f4565b50505062000120620001146200012660201b60201c565b6200012e60201b60201c565b62000309565b600033905090565b6000600760009054906101000a900473ffffffffffffffffffffffffffffffffffffffff16905081600760006101000a81548173ffffffffffffffffffffffffffffffffffffffff021916908373ffffffffffffffffffffffffffffffffffffffff1602179055508173ffffffffffffffffffffffffffffffffffffffff168173ffffffffffffffffffffffffffffffffffffffff167f8be0079c531659141344cd1fd0a4f28419497f9722a3daafe3b4186f6b6457e060405160405180910390a35050565b8280546200020290620002d3565b90600052602060002090601f01602090048101928262000226576000855562000272565b82601f106200024157805160ff191683800117855562000272565b8280016001018555821562000272579182015b828111156200027157825182559160200191906001019062000254565b5b50905062000281919062000285565b5090565b5b80821115620002a057600081600090555060010162000286565b5090565b7f4e487b7100000000000000000000000000000000000000000000000000000000600052602260045260246000fd5b60006002820490506001821680620002ec57607f821691505b60208210811415620003035762000302620002a4565b5b50919050565b61318d80620003196000396000f3fe608060405234801561001057600080fd5b50600436106101215760003560e01c80636d4ce63c116100ad578063a22cb46511610071578063a22cb465146102e2578063b88d4fde146102fe578063c87b56dd1461031a578063e985e9c51461034a578063f2fde38b1461037a57610121565b80636d4ce63c1461024e57806370a082311461026c578063715018a61461029c5780638da5cb5b146102a657806395d89b41146102c457610121565b806323b872dd116100f457806323b872dd146101c057806342842e0e146101dc5780634ed3885e146101f85780636352211e146102145780636871ee401461024457610121565b806301ffc9a71461012657806306fdde0314610156578063081812fc14610174578063095ea7b3146101a4575b600080fd5b610140600480360381019061013b9190611d4c565b610396565b60405161014d9190611d94565b60405180910390f35b61015e610478565b60405161016b9190611e48565b60405180910390f35b61018e60048036038101906101899190611ea0565b61050a565b60405161019b9190611f0e565b60405180910390f35b6101be60048036038101906101b99190611f55565b61058f565b005b6101da60048036038101906101d59190611f95565b6106a7565b005b6101f660048036038101906101f19190611f95565b610707565b005b610212600480360381019061020d919061211d565b610727565b005b61022e60048036038101906102299190611ea0565b610741565b60405161023b9190611f0e565b60405180910390f35b61024c6107f3565b005b61025661084b565b6040516102639190611e48565b60405180910390f35b61028660048036038101906102819190612166565b6108dd565b60405161029391906121a2565b60405180910390f35b6102a4610995565b005b6102ae610a1d565b6040516102bb9190611f0e565b60405180910390f35b6102cc610a47565b6040516102d99190611e48565b60405180910390f35b6102fc60048036038101906102f791906121e9565b610ad9565b005b610318600480360381019061031391906122ca565b610c5a565b005b610334600480360381019061032f9190611ea0565b610cbc565b6040516103419190611e48565b60405180910390f35b610364600480360381019061035f919061234d565b610cce565b6040516103719190611d94565b60405180910390f35b610394600480360381019061038f9190612166565b610d62565b005b60007f80ac58cd000000000000000000000000000000000000000000000000000000007bffffffffffffffffffffffffffffffffffffffffffffffffffffffff1916827bffffffffffffffffffffffffffffffffffffffffffffffffffffffff1916148061046157507f5b5e139f000000000000000000000000000000000000000000000000000000007bffffffffffffffffffffffffffffffffffffffffffffffffffffffff1916827bffffffffffffffffffffffffffffffffffffffffffffffffffffffff1916145b80610471575061047082610e5a565b5b9050919050565b606060008054610487906123bc565b80601f01602080910402602001604051908101604052809291908181526020018280546104b3906123bc565b80156105005780601f106104d557610100808354040283529160200191610500565b820191906000526020600020905b8154815290600101906020018083116104e357829003601f168201915b5050505050905090565b600061051582610ec4565b610554576040517f08c379a000000000000000000000000000000000000000000000000000000000815260040161054b90612460565b60405180910390fd5b6004600083815260200190815260200160002060009054906101000a900473ffffffffffffffffffffffffffffffffffffffff169050919050565b600061059a82610741565b90508073ffffffffffffffffffffffffffffffffffffffff168373ffffffffffffffffffffffffffffffffffffffff16141561060b576040517f08c379a0000000000000000000000000000000000000000000000000000000008152600401610602906124f2565b60405180910390fd5b8073ffffffffffffffffffffffffffffffffffffffff1661062a610f30565b73ffffffffffffffffffffffffffffffffffffffff161480610659575061065881610653610f30565b610cce565b5b610698576040517f08c379a000000000000000000000000000000000000000000000000000000000815260040161068f90612584565b60405180910390fd5b6106a28383610f38565b505050565b6106b86106b2610f30565b82610ff1565b6106f7576040517f08c379a00000000000000000000000000000000000000000000000000000000081526004016106ee90612616565b60405180910390fd5b6107028383836110cf565b505050565b61072283838360405180602001604052806000815250610c5a565b505050565b806009908051906020019061073d929190611c3d565b5050565b6000806002600084815260200190815260200160002060009054906101000a900473ffffffffffffffffffffffffffffffffffffffff169050600073ffffffffffffffffffffffffffffffffffffffff168173ffffffffffffffffffffffffffffffffffffffff1614156107ea576040517f08c379a00000000000000000000000000000000000000000000000000000000081526004016107e1906126a8565b60405180910390fd5b80915050919050565b60006107ff600861132b565b905061080b6008611339565b610815338261134f565b6000600a600960405160200161082c929190612767565b6040516020818303038152906040529050610847828261136d565b5050565b60606009805461085a906123bc565b80601f0160208091040260200160405190810160405280929190818152602001828054610886906123bc565b80156108d35780601f106108a8576101008083540402835291602001916108d3565b820191906000526020600020905b8154815290600101906020018083116108b657829003601f168201915b5050505050905090565b60008073ffffffffffffffffffffffffffffffffffffffff168273ffffffffffffffffffffffffffffffffffffffff16141561094e576040517f08c379a0000000000000000000000000000000000000000000000000000000008152600401610945906127fd565b60405180910390fd5b600360008373ffffffffffffffffffffffffffffffffffffffff1673ffffffffffffffffffffffffffffffffffffffff168152602001908152602001600020549050919050565b61099d610f30565b73ffffffffffffffffffffffffffffffffffffffff166109bb610a1d565b73ffffffffffffffffffffffffffffffffffffffff1614610a11576040517f08c379a0000000000000000000000000000000000000000000000000000000008152600401610a0890612869565b60405180910390fd5b610a1b60006113e1565b565b6000600760009054906101000a900473ffffffffffffffffffffffffffffffffffffffff16905090565b606060018054610a56906123bc565b80601f0160208091040260200160405190810160405280929190818152602001828054610a82906123bc565b8015610acf5780601f10610aa457610100808354040283529160200191610acf565b820191906000526020600020905b815481529060010190602001808311610ab257829003601f168201915b5050505050905090565b610ae1610f30565b73ffffffffffffffffffffffffffffffffffffffff168273ffffffffffffffffffffffffffffffffffffffff161415610b4f576040517f08c379a0000000000000000000000000000000000000000000000000000000008152600401610b46906128d5565b60405180910390fd5b8060056000610b5c610f30565b73ffffffffffffffffffffffffffffffffffffffff1673ffffffffffffffffffffffffffffffffffffffff16815260200190815260200160002060008473ffffffffffffffffffffffffffffffffffffffff1673ffffffffffffffffffffffffffffffffffffffff16815260200190815260200160002060006101000a81548160ff0219169083151502179055508173ffffffffffffffffffffffffffffffffffffffff16610c09610f30565b73ffffffffffffffffffffffffffffffffffffffff167f17307eab39ab6107e8899845ad3d59bd9653f200f220920489ca2b5937696c3183604051610c4e9190611d94565b60405180910390a35050565b610c6b610c65610f30565b83610ff1565b610caa576040517f08c379a0000000000000000000000000000000000000000000000000000000008152600401610ca190612616565b60405180910390fd5b610cb6848484846114a7565b50505050565b6060610cc782611503565b9050919050565b6000600560008473ffffffffffffffffffffffffffffffffffffffff1673ffffffffffffffffffffffffffffffffffffffff16815260200190815260200160002060008373ffffffffffffffffffffffffffffffffffffffff1673ffffffffffffffffffffffffffffffffffffffff16815260200190815260200160002060009054906101000a900460ff16905092915050565b610d6a610f30565b73ffffffffffffffffffffffffffffffffffffffff16610d88610a1d565b73ffffffffffffffffffffffffffffffffffffffff1614610dde576040517f08c379a0000000000000000000000000000000000000000000000000000000008152600401610dd590612869565b60405180910390fd5b600073ffffffffffffffffffffffffffffffffffffffff168173ffffffffffffffffffffffffffffffffffffffff161415610e4e576040517f08c379a0000000000000000000000000000000000000000000000000000000008152600401610e4590612967565b60405180910390fd5b610e57816113e1565b50565b60007f01ffc9a7000000000000000000000000000000000000000000000000000000007bffffffffffffffffffffffffffffffffffffffffffffffffffffffff1916827bffffffffffffffffffffffffffffffffffffffffffffffffffffffff1916149050919050565b60008073ffffffffffffffffffffffffffffffffffffffff166002600084815260200190815260200160002060009054906101000a900473ffffffffffffffffffffffffffffffffffffffff1673ffffffffffffffffffffffffffffffffffffffff1614159050919050565b600033905090565b816004600083815260200190815260200160002060006101000a81548173ffffffffffffffffffffffffffffffffffffffff021916908373ffffffffffffffffffffffffffffffffffffffff160217905550808273ffffffffffffffffffffffffffffffffffffffff16610fab83610741565b73ffffffffffffffffffffffffffffffffffffffff167f8c5be1e5ebec7d5bd14f71427d1e84f3dd0314c0f7b2291e5b200ac8c7c3b92560405160405180910390a45050565b6000610ffc82610ec4565b61103b576040517f08c379a0000000000000000000000000000000000000000000000000000000008152600401611032906129f9565b60405180910390fd5b600061104683610741565b90508073ffffffffffffffffffffffffffffffffffffffff168473ffffffffffffffffffffffffffffffffffffffff1614806110b557508373ffffffffffffffffffffffffffffffffffffffff1661109d8461050a565b73ffffffffffffffffffffffffffffffffffffffff16145b806110c657506110c58185610cce565b5b91505092915050565b8273ffffffffffffffffffffffffffffffffffffffff166110ef82610741565b73ffffffffffffffffffffffffffffffffffffffff1614611145576040517f08c379a000000000000000000000000000000000000000000000000000000000815260040161113c90612a8b565b60405180910390fd5b600073ffffffffffffffffffffffffffffffffffffffff168273ffffffffffffffffffffffffffffffffffffffff1614156111b5576040517f08c379a00000000000000000000000000000000000000000000000000000000081526004016111ac90612b1d565b60405180910390fd5b6111c0838383611655565b6111cb600082610f38565b6001600360008573ffffffffffffffffffffffffffffffffffffffff1673ffffffffffffffffffffffffffffffffffffffff168152602001908152602001600020600082825461121b9190612b6c565b925050819055506001600360008473ffffffffffffffffffffffffffffffffffffffff1673ffffffffffffffffffffffffffffffffffffffff16815260200190815260200160002060008282546112729190612ba0565b92505081905550816002600083815260200190815260200160002060006101000a81548173ffffffffffffffffffffffffffffffffffffffff021916908373ffffffffffffffffffffffffffffffffffffffff160217905550808273ffffffffffffffffffffffffffffffffffffffff168473ffffffffffffffffffffffffffffffffffffffff167fddf252ad1be2c89b69c2b068fc378daa952ba7f163c4a11628f55a4df523b3ef60405160405180910390a4505050565b600081600001549050919050565b6001816000016000828254019250508190555050565b61136982826040518060200160405280600081525061165a565b5050565b61137682610ec4565b6113b5576040517f08c379a00000000000000000000000000000000000000000000000000000000081526004016113ac90612c68565b60405180910390fd5b806006600084815260200190815260200160002090805190602001906113dc929190611c3d565b505050565b6000600760009054906101000a900473ffffffffffffffffffffffffffffffffffffffff16905081600760006101000a81548173ffffffffffffffffffffffffffffffffffffffff021916908373ffffffffffffffffffffffffffffffffffffffff1602179055508173ffffffffffffffffffffffffffffffffffffffff168173ffffffffffffffffffffffffffffffffffffffff167f8be0079c531659141344cd1fd0a4f28419497f9722a3daafe3b4186f6b6457e060405160405180910390a35050565b6114b28484846110cf565b6114be848484846116b5565b6114fd576040517f08c379a00000000000000000000000000000000000000000000000000000000081526004016114f490612cfa565b60405180910390fd5b50505050565b606061150e82610ec4565b61154d576040517f08c379a000000000000000000000000000000000000000000000000000000000815260040161154490612d8c565b60405180910390fd5b600060066000848152602001908152602001600020805461156d906123bc565b80601f0160208091040260200160405190810160405280929190818152602001828054611599906123bc565b80156115e65780601f106115bb576101008083540402835291602001916115e6565b820191906000526020600020905b8154815290600101906020018083116115c957829003601f168201915b5050505050905060006115f761183d565b905060008151141561160d578192505050611650565b60008251111561164257808260405160200161162a929190612ddd565b60405160208183030381529060405292505050611650565b61164b84611854565b925050505b919050565b505050565b61166483836118fb565b61167160008484846116b5565b6116b0576040517f08c379a00000000000000000000000000000000000000000000000000000000081526004016116a790612cfa565b60405180910390fd5b505050565b60006116d68473ffffffffffffffffffffffffffffffffffffffff16611ac9565b15611830578373ffffffffffffffffffffffffffffffffffffffff1663150b7a026116ff610f30565b8786866040518563ffffffff1660e01b81526004016117219493929190612e56565b6020604051808303816000875af192505050801561175d57506040513d601f19601f8201168201806040525081019061175a9190612eb7565b60015b6117e0573d806000811461178d576040519150601f19603f3d011682016040523d82523d6000602084013e611792565b606091505b506000815114156117d8576040517f08c379a00000000000000000000000000000000000000000000000000000000081526004016117cf90612cfa565b60405180910390fd5b805181602001fd5b63150b7a0260e01b7bffffffffffffffffffffffffffffffffffffffffffffffffffffffff1916817bffffffffffffffffffffffffffffffffffffffffffffffffffffffff191614915050611835565b600190505b949350505050565b606060405180602001604052806000815250905090565b606061185f82610ec4565b61189e576040517f08c379a000000000000000000000000000000000000000000000000000000000815260040161189590612f56565b60405180910390fd5b60006118a861183d565b905060008151116118c857604051806020016040528060008152506118f3565b806118d284611adc565b6040516020016118e3929190612ddd565b6040516020818303038152906040525b915050919050565b600073ffffffffffffffffffffffffffffffffffffffff168273ffffffffffffffffffffffffffffffffffffffff16141561196b576040517f08c379a000000000000000000000000000000000000000000000000000000000815260040161196290612fc2565b60405180910390fd5b61197481610ec4565b156119b4576040517f08c379a00000000000000000000000000000000000000000000000000000000081526004016119ab9061302e565b60405180910390fd5b6119c060008383611655565b6001600360008473ffffffffffffffffffffffffffffffffffffffff1673ffffffffffffffffffffffffffffffffffffffff1681526020019081526020016000206000828254611a109190612ba0565b92505081905550816002600083815260200190815260200160002060006101000a81548173ffffffffffffffffffffffffffffffffffffffff021916908373ffffffffffffffffffffffffffffffffffffffff160217905550808273ffffffffffffffffffffffffffffffffffffffff16600073ffffffffffffffffffffffffffffffffffffffff167fddf252ad1be2c89b69c2b068fc378daa952ba7f163c4a11628f55a4df523b3ef60405160405180910390a45050565b600080823b905060008111915050919050565b60606000821415611b24576040518060400160405280600181526020017f30000000000000000000000000000000000000000000000000000000000000008152509050611c38565b600082905060005b60008214611b56578080611b3f9061304e565b915050600a82611b4f91906130c6565b9150611b2c565b60008167ffffffffffffffff811115611b7257611b71611ff2565b5b6040519080825280601f01601f191660200182016040528015611ba45781602001600182028036833780820191505090505b5090505b60008514611c3157600182611bbd9190612b6c565b9150600a85611bcc91906130f7565b6030611bd89190612ba0565b60f81b818381518110611bee57611bed613128565b5b60200101907effffffffffffffffffffffffffffffffffffffffffffffffffffffffffffff1916908160001a905350600a85611c2a91906130c6565b9450611ba8565b8093505050505b919050565b828054611c49906123bc565b90600052602060002090601f016020900481019282611c6b5760008555611cb2565b82601f10611c8457805160ff1916838001178555611cb2565b82800160010185558215611cb2579182015b82811115611cb1578251825591602001919060010190611c96565b5b509050611cbf9190611cc3565b5090565b5b80821115611cdc576000816000905550600101611cc4565b5090565b6000604051905090565b600080fd5b600080fd5b60007fffffffff0000000000000000000000000000000000000000000000000000000082169050919050565b611d2981611cf4565b8114611d3457600080fd5b50565b600081359050611d4681611d20565b92915050565b600060208284031215611d6257611d61611cea565b5b6000611d7084828501611d37565b91505092915050565b60008115159050919050565b611d8e81611d79565b82525050565b6000602082019050611da96000830184611d85565b92915050565b600081519050919050565b600082825260208201905092915050565b60005b83811015611de9578082015181840152602081019050611dce565b83811115611df8576000848401525b50505050565b6000601f19601f8301169050919050565b6000611e1a82611daf565b611e248185611dba565b9350611e34818560208601611dcb565b611e3d81611dfe565b840191505092915050565b60006020820190508181036000830152611e628184611e0f565b905092915050565b6000819050919050565b611e7d81611e6a565b8114611e8857600080fd5b50565b600081359050611e9a81611e74565b92915050565b600060208284031215611eb657611eb5611cea565b5b6000611ec484828501611e8b565b91505092915050565b600073ffffffffffffffffffffffffffffffffffffffff82169050919050565b6000611ef882611ecd565b9050919050565b611f0881611eed565b82525050565b6000602082019050611f236000830184611eff565b92915050565b611f3281611eed565b8114611f3d57600080fd5b50565b600081359050611f4f81611f29565b92915050565b60008060408385031215611f6c57611f6b611cea565b5b6000611f7a85828601611f40565b9250506020611f8b85828601611e8b565b9150509250929050565b600080600060608486031215611fae57611fad611cea565b5b6000611fbc86828701611f40565b9350506020611fcd86828701611f40565b9250506040611fde86828701611e8b565b9150509250925092565b600080fd5b600080fd5b7f4e487b7100000000000000000000000000000000000000000000000000000000600052604160045260246000fd5b61202a82611dfe565b810181811067ffffffffffffffff8211171561204957612048611ff2565b5b80604052505050565b600061205c611ce0565b90506120688282612021565b919050565b600067ffffffffffffffff82111561208857612087611ff2565b5b61209182611dfe565b9050602081019050919050565b82818337600083830152505050565b60006120c06120bb8461206d565b612052565b9050828152602081018484840111156120dc576120db611fed565b5b6120e784828561209e565b509392505050565b600082601f83011261210457612103611fe8565b5b81356121148482602086016120ad565b91505092915050565b60006020828403121561213357612132611cea565b5b600082013567ffffffffffffffff81111561215157612150611cef565b5b61215d848285016120ef565b91505092915050565b60006020828403121561217c5761217b611cea565b5b600061218a84828501611f40565b91505092915050565b61219c81611e6a565b82525050565b60006020820190506121b76000830184612193565b92915050565b6121c681611d79565b81146121d157600080fd5b50565b6000813590506121e3816121bd565b92915050565b60008060408385031215612200576121ff611cea565b5b600061220e85828601611f40565b925050602061221f858286016121d4565b9150509250929050565b600067ffffffffffffffff82111561224457612243611ff2565b5b61224d82611dfe565b9050602081019050919050565b600061226d61226884612229565b612052565b90508281526020810184848401111561228957612288611fed565b5b61229484828561209e565b509392505050565b600082601f8301126122b1576122b0611fe8565b5b81356122c184826020860161225a565b91505092915050565b600080600080608085870312156122e4576122e3611cea565b5b60006122f287828801611f40565b945050602061230387828801611f40565b935050604061231487828801611e8b565b925050606085013567ffffffffffffffff81111561233557612334611cef565b5b6123418782880161229c565b91505092959194509250565b6000806040838503121561236457612363611cea565b5b600061237285828601611f40565b925050602061238385828601611f40565b9150509250929050565b7f4e487b7100000000000000000000000000000000000000000000000000000000600052602260045260246000fd5b600060028204905060018216806123d457607f821691505b602082108114156123e8576123e761238d565b5b50919050565b7f4552433732313a20617070726f76656420717565727920666f72206e6f6e657860008201527f697374656e7420746f6b656e0000000000000000000000000000000000000000602082015250565b600061244a602c83611dba565b9150612455826123ee565b604082019050919050565b600060208201905081810360008301526124798161243d565b9050919050565b7f4552433732313a20617070726f76616c20746f2063757272656e74206f776e6560008201527f7200000000000000000000000000000000000000000000000000000000000000602082015250565b60006124dc602183611dba565b91506124e782612480565b604082019050919050565b6000602082019050818103600083015261250b816124cf565b9050919050565b7f4552433732313a20617070726f76652063616c6c6572206973206e6f74206f7760008201527f6e6572206e6f7220617070726f76656420666f7220616c6c0000000000000000602082015250565b600061256e603883611dba565b915061257982612512565b604082019050919050565b6000602082019050818103600083015261259d81612561565b9050919050565b7f4552433732313a207472616e736665722063616c6c6572206973206e6f74206f60008201527f776e6572206e6f7220617070726f766564000000000000000000000000000000602082015250565b6000612600603183611dba565b915061260b826125a4565b604082019050919050565b6000602082019050818103600083015261262f816125f3565b9050919050565b7f4552433732313a206f776e657220717565727920666f72206e6f6e657869737460008201527f656e7420746f6b656e0000000000000000000000000000000000000000000000602082015250565b6000612692602983611dba565b915061269d82612636565b604082019050919050565b600060208201905081810360008301526126c181612685565b9050919050565b600081905092915050565b60008190508160005260206000209050919050565b600081546126f5816123bc565b6126ff81866126c8565b9450600182166000811461271a576001811461272b5761275e565b60ff1983168652818601935061275e565b612734856126d3565b60005b8381101561275657815481890152600182019150602081019050612737565b838801955050505b50505092915050565b600061277382856126e8565b915061277f82846126e8565b91508190509392505050565b7f4552433732313a2062616c616e636520717565727920666f7220746865207a6560008201527f726f206164647265737300000000000000000000000000000000000000000000602082015250565b60006127e7602a83611dba565b91506127f28261278b565b604082019050919050565b60006020820190508181036000830152612816816127da565b9050919050565b7f4f776e61626c653a2063616c6c6572206973206e6f7420746865206f776e6572600082015250565b6000612853602083611dba565b915061285e8261281d565b602082019050919050565b6000602082019050818103600083015261288281612846565b9050919050565b7f4552433732313a20617070726f766520746f2063616c6c657200000000000000600082015250565b60006128bf601983611dba565b91506128ca82612889565b602082019050919050565b600060208201905081810360008301526128ee816128b2565b9050919050565b7f4f776e61626c653a206e6577206f776e657220697320746865207a65726f206160008201527f6464726573730000000000000000000000000000000000000000000000000000602082015250565b6000612951602683611dba565b915061295c826128f5565b604082019050919050565b6000602082019050818103600083015261298081612944565b9050919050565b7f4552433732313a206f70657261746f7220717565727920666f72206e6f6e657860008201527f697374656e7420746f6b656e0000000000000000000000000000000000000000602082015250565b60006129e3602c83611dba565b91506129ee82612987565b604082019050919050565b60006020820190508181036000830152612a12816129d6565b9050919050565b7f4552433732313a207472616e73666572206f6620746f6b656e2074686174206960008201527f73206e6f74206f776e0000000000000000000000000000000000000000000000602082015250565b6000612a75602983611dba565b9150612a8082612a19565b604082019050919050565b60006020820190508181036000830152612aa481612a68565b9050919050565b7f4552433732313a207472616e7366657220746f20746865207a65726f2061646460008201527f7265737300000000000000000000000000000000000000000000000000000000602082015250565b6000612b07602483611dba565b9150612b1282612aab565b604082019050919050565b60006020820190508181036000830152612b3681612afa565b9050919050565b7f4e487b7100000000000000000000000000000000000000000000000000000000600052601160045260246000fd5b6000612b7782611e6a565b9150612b8283611e6a565b925082821015612b9557612b94612b3d565b5b828203905092915050565b6000612bab82611e6a565b9150612bb683611e6a565b9250827fffffffffffffffffffffffffffffffffffffffffffffffffffffffffffffffff03821115612beb57612bea612b3d565b5b828201905092915050565b7f45524337323155524953746f726167653a2055524920736574206f66206e6f6e60008201527f6578697374656e7420746f6b656e000000000000000000000000000000000000602082015250565b6000612c52602e83611dba565b9150612c5d82612bf6565b604082019050919050565b60006020820190508181036000830152612c8181612c45565b9050919050565b7f4552433732313a207472616e7366657220746f206e6f6e20455243373231526560008201527f63656976657220696d706c656d656e7465720000000000000000000000000000602082015250565b6000612ce4603283611dba565b9150612cef82612c88565b604082019050919050565b60006020820190508181036000830152612d1381612cd7565b9050919050565b7f45524337323155524953746f726167653a2055524920717565727920666f722060008201527f6e6f6e6578697374656e7420746f6b656e000000000000000000000000000000602082015250565b6000612d76603183611dba565b9150612d8182612d1a565b604082019050919050565b60006020820190508181036000830152612da581612d69565b9050919050565b6000612db782611daf565b612dc181856126c8565b9350612dd1818560208601611dcb565b80840191505092915050565b6000612de98285612dac565b9150612df58284612dac565b91508190509392505050565b600081519050919050565b600082825260208201905092915050565b6000612e2882612e01565b612e328185612e0c565b9350612e42818560208601611dcb565b612e4b81611dfe565b840191505092915050565b6000608082019050612e6b6000830187611eff565b612e786020830186611eff565b612e856040830185612193565b8181036060830152612e978184612e1d565b905095945050505050565b600081519050612eb181611d20565b92915050565b600060208284031215612ecd57612ecc611cea565b5b6000612edb84828501612ea2565b91505092915050565b7f4552433732314d657461646174613a2055524920717565727920666f72206e6f60008201527f6e6578697374656e7420746f6b656e0000000000000000000000000000000000602082015250565b6000612f40602f83611dba565b9150612f4b82612ee4565b604082019050919050565b60006020820190508181036000830152612f6f81612f33565b9050919050565b7f4552433732313a206d696e7420746f20746865207a65726f2061646472657373600082015250565b6000612fac602083611dba565b9150612fb782612f76565b602082019050919050565b60006020820190508181036000830152612fdb81612f9f565b9050919050565b7f4552433732313a20746f6b656e20616c7265616479206d696e74656400000000600082015250565b6000613018601c83611dba565b915061302382612fe2565b602082019050919050565b600060208201905081810360008301526130478161300b565b9050919050565b600061305982611e6a565b91507fffffffffffffffffffffffffffffffffffffffffffffffffffffffffffffffff82141561308c5761308b612b3d565b5b600182019050919050565b7f4e487b7100000000000000000000000000000000000000000000000000000000600052601260045260246000fd5b60006130d182611e6a565b91506130dc83611e6a565b9250826130ec576130eb613097565b5b828204905092915050565b600061310282611e6a565b915061310d83611e6a565b92508261311d5761311c613097565b5b828206905092915050565b7f4e487b7100000000000000000000000000000000000000000000000000000000600052603260045260246000fdfea2646970667358221220fb1eb2ef8b7231c9a9fe596b6404aca1601a3868aec22277c6a43543b0fe85ce64736f6c634300080a0033",
  "immutableReferences": {},
  "source": "// SPDX-License-Identifier: MIT\npragma solidity >=0.4.21 <0.9.0;\nimport \"@openzeppelin/contracts/token/ERC721/ERC721.sol\";\nimport \"@openzeppelin/contracts/token/ERC721/extensions/ERC721URIStorage.sol\";\nimport \"@openzeppelin/contracts/access/Ownable.sol\";\nimport \"@openzeppelin/contracts/utils/Counters.sol\";\n\ncontract SimpleStorage is ERC721, ERC721URIStorage, Ownable {\n    using Counters for Counters.Counter;\n\n    Counters.Counter private _tokenIdCounter;\n     constructor() ERC721(\"MyToken\", \"MTK\") {}\n    string ipfsHash;\n     function set(string memory x) public {\n    ipfsHash = x;\n  }\n\n  function get() public view returns (string memory) {\n    return ipfsHash;\n  }\n\n    string baseURL = \"https://ipfs.io/ipfs/\";\n\n\n    function safeMint() public  {\n        uint256 tokenId = _tokenIdCounter.current();\n        _tokenIdCounter.increment();\n        _safeMint(msg.sender, tokenId);\n         string memory imageURI = string(abi.encodePacked(baseURL,ipfsHash));\n        _setTokenURI(tokenId, imageURI);\n    }\n\n    // The following functions are overrides required by Solidity.\n    //let con = await SimpleStorage.deployed();\n\n    function _burn(uint256 tokenId) internal override(ERC721, ERC721URIStorage) {\n        super._burn(tokenId);\n    }\n\n    function tokenURI(uint256 tokenId)\n        public\n        view\n        override(ERC721, ERC721URIStorage)\n        returns (string memory)\n    {\n        return super.tokenURI(tokenId);\n    }\n}",
  "sourcePath": "C:\\Users\\rajdip benarjee\\Desktop\\IPFS\\contracts\\SimpleStorage.sol",
  "compiler": {
    "name": "solc",
    "version": "0.8.10+commit.fc410830.Emscripten.clang"
  },
  "schemaVersion": "3.4.3",
  "updatedAt": "2021-11-09T17:13:08.203Z",
  "networkType": "ethereum",
  "devdoc": {
    "kind": "dev",
    "methods": {
      "approve(address,uint256)": {
        "details": "See {IERC721-approve}."
      },
      "balanceOf(address)": {
        "details": "See {IERC721-balanceOf}."
      },
      "getApproved(uint256)": {
        "details": "See {IERC721-getApproved}."
      },
      "isApprovedForAll(address,address)": {
        "details": "See {IERC721-isApprovedForAll}."
      },
      "name()": {
        "details": "See {IERC721Metadata-name}."
      },
      "owner()": {
        "details": "Returns the address of the current owner."
      },
      "ownerOf(uint256)": {
        "details": "See {IERC721-ownerOf}."
      },
      "renounceOwnership()": {
        "details": "Leaves the contract without owner. It will not be possible to call `onlyOwner` functions anymore. Can only be called by the current owner. NOTE: Renouncing ownership will leave the contract without an owner, thereby removing any functionality that is only available to the owner."
      },
      "safeTransferFrom(address,address,uint256)": {
        "details": "See {IERC721-safeTransferFrom}."
      },
      "safeTransferFrom(address,address,uint256,bytes)": {
        "details": "See {IERC721-safeTransferFrom}."
      },
      "setApprovalForAll(address,bool)": {
        "details": "See {IERC721-setApprovalForAll}."
      },
      "supportsInterface(bytes4)": {
        "details": "See {IERC165-supportsInterface}."
      },
      "symbol()": {
        "details": "See {IERC721Metadata-symbol}."
      },
      "transferFrom(address,address,uint256)": {
        "details": "See {IERC721-transferFrom}."
      },
      "transferOwnership(address)": {
        "details": "Transfers ownership of the contract to a new account (`newOwner`). Can only be called by the current owner."
      }
    },
    "version": 1
  },
  "userdoc": {
    "kind": "user",
    "methods": {},
    "version": 1
  }
}